{
  "transactions": [
    {
      "hash": "0xa55fe5ff2bbbd6bc326ae878581887ed3738eaf6812e88d1dcef682b85d9b6c9",
      "transactionType": "CALL",
      "contractName": "PoolManager",
      "contractAddress": "0xc021a7deb4a939fd7e661a0669fab5ac7ba2d5d6",
      "function": "initialize((address,address,uint24,int24,address),uint160,bytes)",
      "arguments": [
        "(0x0f1D1b7abAeC1Df25f2C4Db751686FC5233f6D3f, 0xc7c06a77b481869ecc57E5432D03c3661406424D, 4000, 60, 0x854d0410137EE2f307C72fea4A7d176223950ac0)",
        "79228162514264337593543950336",
        "0x0000000000000000000000000000000000000000000000000000000066da04a8"
      ],
      "transaction": {
        "from": "0x27e20bd50106e3fbc50a230bd5dc02d7793c7d84",
        "to": "0xc021a7deb4a939fd7e661a0669fab5ac7ba2d5d6",
        "gas": "0x1340b",
        "value": "0x0",
        "input": "0x695c5bf50000000000000000000000000f1d1b7abaec1df25f2c4db751686fc5233f6d3f000000000000000000000000c7c06a77b481869ecc57e5432d03c3661406424d0000000000000000000000000000000000000000000000000000000000000fa0000000000000000000000000000000000000000000000000000000000000003c000000000000000000000000854d0410137ee2f307c72fea4a7d176223950ac0000000000000000000000000000000000000000100000000000000000000000000000000000000000000000000000000000000000000000000000000000000e000000000000000000000000000000000000000000000000000000000000000200000000000000000000000000000000000000000000000000000000066da04a8",
        "nonce": "0x21",
        "chainId": "0xaa36a7"
      },
      "additionalContracts": [],
      "isFixedGasLimit": false
    }
  ],
  "receipts": [
    {
      "status": "0x1",
      "cumulativeGasUsed": "0x96358f",
      "logs": [
        {
          "address": "0xc021a7deb4a939fd7e661a0669fab5ac7ba2d5d6",
          "topics": [
            "0x3fd553db44f207b1f41348cfc4d251860814af9eadc470e8e7895e4d120511f4",
            "0x0000000000000000000000000f1d1b7abaec1df25f2c4db751686fc5233f6d3f",
            "0x000000000000000000000000c7c06a77b481869ecc57e5432d03c3661406424d"
          ],
          "data": "0xef7a1340c515223c32bf78c9cb75a9c5bf01e8dfbb90cc488ff0f11a79d8f0f40000000000000000000000000000000000000000000000000000000000000fa0000000000000000000000000000000000000000000000000000000000000003c000000000000000000000000854d0410137ee2f307c72fea4a7d176223950ac0",
          "blockHash": "0xcdd4c5b56deea40bf50bbad1edd9f0b1a69bbf7f897f3a6279bb9768f326699e",
          "blockNumber": "0x654d5d",
          "transactionHash": "0xa55fe5ff2bbbd6bc326ae878581887ed3738eaf6812e88d1dcef682b85d9b6c9",
          "transactionIndex": "0x3f",
          "logIndex": "0x4f",
          "removed": false
        }
      ],
      "logsBloom": "0x00040000000000000000200000000000000000000000000000000400002000000000000000000000000000000000000000000000004000000000000000000000000000000000000000000000000020000000000000000000000000000000000000000000000000000000000000000000000000000000000000000000000000000000000000000000000000000000000000000000000000010000000000000000000000000100000000000000000000000000000000000000000000000000000000000000000000000000000000000000000000000000100000000008000000040000000000000000000000000000000000000000000002000000000000000000",
      "type": "0x2",
      "transactionHash": "0xa55fe5ff2bbbd6bc326ae878581887ed3738eaf6812e88d1dcef682b85d9b6c9",
      "transactionIndex": "0x3f",
      "blockHash": "0xcdd4c5b56deea40bf50bbad1edd9f0b1a69bbf7f897f3a6279bb9768f326699e",
      "blockNumber": "0x654d5d",
      "gasUsed": "0xd2a1",
      "effectiveGasPrice": "0x1a44632fd",
      "from": "0x27e20bd50106e3fbc50a230bd5dc02d7793c7d84",
      "to": "0xc021a7deb4a939fd7e661a0669fab5ac7ba2d5d6",
      "contractAddress": null
    }
  ],
  "libraries": [],
  "pending": [],
  "returns": {},
  "timestamp": 1725564057,
  "chain": 11155111,
  "commit": "bc48e82"
}