{
  "transactions": [
    {
      "hash": "0xe5a7b4d2ef2db3b1857f073816be077ea7f3ea564c2c8643908a93b9574a850d",
      "transactionType": "CALL",
      "contractName": "PoolManager",
      "contractAddress": "0xc021a7deb4a939fd7e661a0669fab5ac7ba2d5d6",
      "function": "initialize((address,address,uint24,int24,address),uint160,bytes)",
      "arguments": [
        "(0x0f1D1b7abAeC1Df25f2C4Db751686FC5233f6D3f, 0xc7c06a77b481869ecc57E5432D03c3661406424D, 4000, 60, 0x4C3bb7E3eb22a1AED4f16D87A3427034E394cAc0)",
        "79228162514264337593543950336",
        "0x0000000000000000000000000000000000000000000000000000000066cf5b44"
      ],
      "transaction": {
        "from": "0x27e20bd50106e3fbc50a230bd5dc02d7793c7d84",
        "to": "0xc021a7deb4a939fd7e661a0669fab5ac7ba2d5d6",
        "gas": "0x1340b",
        "value": "0x0",
        "input": "0x695c5bf50000000000000000000000000f1d1b7abaec1df25f2c4db751686fc5233f6d3f000000000000000000000000c7c06a77b481869ecc57e5432d03c3661406424d0000000000000000000000000000000000000000000000000000000000000fa0000000000000000000000000000000000000000000000000000000000000003c0000000000000000000000004c3bb7e3eb22a1aed4f16d87a3427034e394cac0000000000000000000000000000000000000000100000000000000000000000000000000000000000000000000000000000000000000000000000000000000e000000000000000000000000000000000000000000000000000000000000000200000000000000000000000000000000000000000000000000000000066cf5b44",
        "nonce": "0x5",
        "chainId": "0xaa36a7"
      },
      "additionalContracts": [],
      "isFixedGasLimit": false
    }
  ],
  "receipts": [
    {
      "status": "0x1",
      "cumulativeGasUsed": "0xc4e2c0",
      "logs": [
        {
          "address": "0xc021a7deb4a939fd7e661a0669fab5ac7ba2d5d6",
          "topics": [
            "0x3fd553db44f207b1f41348cfc4d251860814af9eadc470e8e7895e4d120511f4",
            "0x0000000000000000000000000f1d1b7abaec1df25f2c4db751686fc5233f6d3f",
            "0x000000000000000000000000c7c06a77b481869ecc57e5432d03c3661406424d"
          ],
          "data": "0xd15a52975dec167ac122488117c7837c39b90f19534d527989ed367e220f30210000000000000000000000000000000000000000000000000000000000000fa0000000000000000000000000000000000000000000000000000000000000003c0000000000000000000000004c3bb7e3eb22a1aed4f16d87a3427034e394cac0",
          "blockHash": "0x61e089d09ab8e6696ed4528be2871c99a03ea66b80df2c015bce60b327a5463f",
          "blockNumber": "0x64894d",
          "transactionHash": "0xe5a7b4d2ef2db3b1857f073816be077ea7f3ea564c2c8643908a93b9574a850d",
          "transactionIndex": "0x56",
          "logIndex": "0x7b",
          "removed": false
        }
      ],
      "logsBloom": "0x00040000000000000000200000000000000000000000000000000400002000000000000000000000000000000000000000000000004000000000000000000000000000000000000000000000000020000000000000000000000000000000000000000000000000000000000000000000000000000000000000000000000000000000000000000000000000000000000000000000000000010000000000000000000000000100000000000000000000000000000000000000000000000000000000000000000000000000000000000000000000000000100000000008000000040000000000000000000000000000000000000000000002000000000000000000",
      "type": "0x2",
      "transactionHash": "0xe5a7b4d2ef2db3b1857f073816be077ea7f3ea564c2c8643908a93b9574a850d",
      "transactionIndex": "0x56",
      "blockHash": "0x61e089d09ab8e6696ed4528be2871c99a03ea66b80df2c015bce60b327a5463f",
      "blockNumber": "0x64894d",
      "gasUsed": "0xd2a1",
      "effectiveGasPrice": "0x2c9449732",
      "from": "0x27e20bd50106e3fbc50a230bd5dc02d7793c7d84",
      "to": "0xc021a7deb4a939fd7e661a0669fab5ac7ba2d5d6",
      "contractAddress": null
    }
  ],
  "libraries": [],
  "pending": [],
  "returns": {},
  "timestamp": 1724865363,
  "chain": 11155111,
  "commit": "67f8746"
}