{
  "transactions": [
    {
      "hash": "0x70d31968540938913ca8182be6e411b08b188cd117743444cdbdb3660745f8ad",
      "transactionType": "CALL",
      "contractName": "PoolManager",
      "contractAddress": "0xc021a7deb4a939fd7e661a0669fab5ac7ba2d5d6",
      "function": "initialize((address,address,uint24,int24,address),uint160,bytes)",
      "arguments": [
        "(0x0f1D1b7abAeC1Df25f2C4Db751686FC5233f6D3f, 0xc7c06a77b481869ecc57E5432D03c3661406424D, 4000, 60, 0xa33059E05870A82e84cdCA38EB0e40BF13c54AC0)",
        "79228162514264337593543950336",
        "0x0000000000000000000000000000000000000000000000000000000066da10c0"
      ],
      "transaction": {
        "from": "0x27e20bd50106e3fbc50a230bd5dc02d7793c7d84",
        "to": "0xc021a7deb4a939fd7e661a0669fab5ac7ba2d5d6",
        "gas": "0x1340b",
        "value": "0x0",
        "input": "0x695c5bf50000000000000000000000000f1d1b7abaec1df25f2c4db751686fc5233f6d3f000000000000000000000000c7c06a77b481869ecc57e5432d03c3661406424d0000000000000000000000000000000000000000000000000000000000000fa0000000000000000000000000000000000000000000000000000000000000003c000000000000000000000000a33059e05870a82e84cdca38eb0e40bf13c54ac0000000000000000000000000000000000000000100000000000000000000000000000000000000000000000000000000000000000000000000000000000000e000000000000000000000000000000000000000000000000000000000000000200000000000000000000000000000000000000000000000000000000066da10c0",
        "nonce": "0x2a",
        "chainId": "0xaa36a7"
      },
      "additionalContracts": [],
      "isFixedGasLimit": false
    }
  ],
  "receipts": [
    {
      "status": "0x1",
      "cumulativeGasUsed": "0xdcc490",
      "logs": [
        {
          "address": "0xc021a7deb4a939fd7e661a0669fab5ac7ba2d5d6",
          "topics": [
            "0x3fd553db44f207b1f41348cfc4d251860814af9eadc470e8e7895e4d120511f4",
            "0x0000000000000000000000000f1d1b7abaec1df25f2c4db751686fc5233f6d3f",
            "0x000000000000000000000000c7c06a77b481869ecc57e5432d03c3661406424d"
          ],
          "data": "0x6ea9d1b5b190f9d37adeeaf569662fdc232f041907de1dd2dc7b51fc915155ab0000000000000000000000000000000000000000000000000000000000000fa0000000000000000000000000000000000000000000000000000000000000003c000000000000000000000000a33059e05870a82e84cdca38eb0e40bf13c54ac0",
          "blockHash": "0x1e0a2f17fe6c9ac56f7b9719af3ec6bc6279bc6fef2733205d955a20ba961fe8",
          "blockNumber": "0x654e25",
          "transactionHash": "0x70d31968540938913ca8182be6e411b08b188cd117743444cdbdb3660745f8ad",
          "transactionIndex": "0x4f",
          "logIndex": "0x39",
          "removed": false
        }
      ],
      "logsBloom": "0x00040000000000000000200000000000000000000000000000000400002000000000000000000000000000000000000000000000004000000000000000000000000000000000000000000000000020000000000000000000000000000000000000000000000000000000000000000000000000000000000000000000000000000000000000000000000000000000000000000000000000010000000000000000000000000100000000000000000000000000000000000000000000000000000000000000000000000000000000000000000000000000100000000008000000040000000000000000000000000000000000000000000002000000000000000000",
      "type": "0x2",
      "transactionHash": "0x70d31968540938913ca8182be6e411b08b188cd117743444cdbdb3660745f8ad",
      "transactionIndex": "0x4f",
      "blockHash": "0x1e0a2f17fe6c9ac56f7b9719af3ec6bc6279bc6fef2733205d955a20ba961fe8",
      "blockNumber": "0x654e25",
      "gasUsed": "0xd2a1",
      "effectiveGasPrice": "0xda87805c",
      "from": "0x27e20bd50106e3fbc50a230bd5dc02d7793c7d84",
      "to": "0xc021a7deb4a939fd7e661a0669fab5ac7ba2d5d6",
      "contractAddress": null
    }
  ],
  "libraries": [],
  "pending": [],
  "returns": {},
  "timestamp": 1725567167,
  "chain": 11155111,
  "commit": "bc48e82"
}