{
  "transactions": [
    {
      "hash": "0x6f3c2749c910fd3495ae5505cc1b60c4527af4de373f07460c27aa3ea341e820",
      "transactionType": "CALL",
      "contractName": "PoolManager",
      "contractAddress": "0xf242ce588b030d0895c51c0730f2368680f80644",
      "function": "initialize((address,address,uint24,int24,address),uint160,bytes)",
      "arguments": [
        "(0x0f1D1b7abAeC1Df25f2C4Db751686FC5233f6D3f, 0xc7c06a77b481869ecc57E5432D03c3661406424D, 4000, 60, 0x68F509A9c0e51f388144157cF2F9F24C5A15CaC0)",
        "79228162514264337593543950336",
        "0x0000000000000000000000000000000000000000000000000000000066cf5754"
      ],
      "transaction": {
        "from": "0x27e20bd50106e3fbc50a230bd5dc02d7793c7d84",
        "to": "0xf242ce588b030d0895c51c0730f2368680f80644",
        "gas": "0x137c1",
        "value": "0x0",
        "input": "0x695c5bf50000000000000000000000000f1d1b7abaec1df25f2c4db751686fc5233f6d3f000000000000000000000000c7c06a77b481869ecc57e5432d03c3661406424d0000000000000000000000000000000000000000000000000000000000000fa0000000000000000000000000000000000000000000000000000000000000003c00000000000000000000000068f509a9c0e51f388144157cf2f9f24c5a15cac0000000000000000000000000000000000000000100000000000000000000000000000000000000000000000000000000000000000000000000000000000000e000000000000000000000000000000000000000000000000000000000000000200000000000000000000000000000000000000000000000000000000066cf5754",
        "nonce": "0x3",
        "chainId": "0xaa36a7"
      },
      "additionalContracts": [],
      "isFixedGasLimit": false
    }
  ],
  "receipts": [
    {
      "status": "0x1",
      "cumulativeGasUsed": "0xe861d9",
      "logs": [
        {
          "address": "0xf242ce588b030d0895c51c0730f2368680f80644",
          "topics": [
            "0xdd466e674ea557f56295e2d0218a125ea4b4f0f6f3307b95f85e6110838d6438",
            "0x527602e7f842dfa59f9b87b404909f6eeba469dd92201df0e2fb61bd5ff456d0",
            "0x0000000000000000000000000f1d1b7abaec1df25f2c4db751686fc5233f6d3f",
            "0x000000000000000000000000c7c06a77b481869ecc57e5432d03c3661406424d"
          ],
          "data": "0x0000000000000000000000000000000000000000000000000000000000000fa0000000000000000000000000000000000000000000000000000000000000003c00000000000000000000000068f509a9c0e51f388144157cf2f9f24c5a15cac000000000000000000000000000000000000000010000000000000000000000000000000000000000000000000000000000000000000000000000000000000000",
          "blockHash": "0x838fcc5baba5ad7a2bde4d6a2755efae20b7d5c30b4ccf2a58a3175675bbcca2",
          "blockNumber": "0x648903",
          "transactionHash": "0x6f3c2749c910fd3495ae5505cc1b60c4527af4de373f07460c27aa3ea341e820",
          "transactionIndex": "0x35",
          "logIndex": "0x68",
          "removed": false
        }
      ],
      "logsBloom": "0x00040000000000000000004000000000000000000000000000000000002000000000000000000000000000000000000000000000000000000000000000000000000000000000000000000000000000000000000000000000000000000000000000000000000000000000000000000000000000000000000000000000000000000000000000000008000000000000000000000001000000010000000000200001000000000100020000000000000200000000000000000000000000000000000000000000000000000800000000000000000000000000100000000208000000000000000000000000000000000000000000000000000000000000000000000000",
      "type": "0x2",
      "transactionHash": "0x6f3c2749c910fd3495ae5505cc1b60c4527af4de373f07460c27aa3ea341e820",
      "transactionIndex": "0x35",
      "blockHash": "0x838fcc5baba5ad7a2bde4d6a2755efae20b7d5c30b4ccf2a58a3175675bbcca2",
      "blockNumber": "0x648903",
      "gasUsed": "0xd52b",
      "effectiveGasPrice": "0x21f3814e4",
      "from": "0x27e20bd50106e3fbc50a230bd5dc02d7793c7d84",
      "to": "0xf242ce588b030d0895c51c0730f2368680f80644",
      "contractAddress": null
    }
  ],
  "libraries": [],
  "pending": [],
  "returns": {},
  "timestamp": 1724864342,
  "chain": 11155111,
  "commit": "67f8746"
}