{
  "transactions": [
    {
      "hash": "0x146da422ab038d6e7ff867e9a53fca88931ace7b90c2c90adde1e1dba09d2ff6",
      "transactionType": "CALL",
      "contractName": "PoolManager",
      "contractAddress": "0xc021a7deb4a939fd7e661a0669fab5ac7ba2d5d6",
      "function": "initialize((address,address,uint24,int24,address),uint160,bytes)",
      "arguments": [
        "(0x0f1D1b7abAeC1Df25f2C4Db751686FC5233f6D3f, 0xc7c06a77b481869ecc57E5432D03c3661406424D, 4000, 60, 0x4E4a9A0C097427A4A72B1386A031fd411adf8aC0)",
        "79228162514264337593543950336",
        "0x0000000000000000000000000000000000000000000000000000000066ded740"
      ],
      "transaction": {
        "from": "0x27e20bd50106e3fbc50a230bd5dc02d7793c7d84",
        "to": "0xc021a7deb4a939fd7e661a0669fab5ac7ba2d5d6",
        "gas": "0x1340b",
        "value": "0x0",
        "input": "0x695c5bf50000000000000000000000000f1d1b7abaec1df25f2c4db751686fc5233f6d3f000000000000000000000000c7c06a77b481869ecc57e5432d03c3661406424d0000000000000000000000000000000000000000000000000000000000000fa0000000000000000000000000000000000000000000000000000000000000003c0000000000000000000000004e4a9a0c097427a4a72b1386a031fd411adf8ac0000000000000000000000000000000000000000100000000000000000000000000000000000000000000000000000000000000000000000000000000000000e000000000000000000000000000000000000000000000000000000000000000200000000000000000000000000000000000000000000000000000000066ded740",
        "nonce": "0x32",
        "chainId": "0xaa36a7"
      },
      "additionalContracts": [],
      "isFixedGasLimit": false
    }
  ],
  "receipts": [
    {
      "status": "0x1",
      "cumulativeGasUsed": "0x1c0bb5e",
      "logs": [
        {
          "address": "0xc021a7deb4a939fd7e661a0669fab5ac7ba2d5d6",
          "topics": [
            "0x3fd553db44f207b1f41348cfc4d251860814af9eadc470e8e7895e4d120511f4",
            "0x0000000000000000000000000f1d1b7abaec1df25f2c4db751686fc5233f6d3f",
            "0x000000000000000000000000c7c06a77b481869ecc57e5432d03c3661406424d"
          ],
          "data": "0x8e73b58e6486c577408ef946ea76f79e60a835fd905b7c0c42b564024bcd45810000000000000000000000000000000000000000000000000000000000000fa0000000000000000000000000000000000000000000000000000000000000003c0000000000000000000000004e4a9a0c097427a4a72b1386a031fd411adf8ac0",
          "blockHash": "0xaed7a990d3689aa8b34d36a419254508b67620209ce883c445f86931db3476ba",
          "blockNumber": "0x65a254",
          "transactionHash": "0x146da422ab038d6e7ff867e9a53fca88931ace7b90c2c90adde1e1dba09d2ff6",
          "transactionIndex": "0x1a3",
          "logIndex": "0x1fd",
          "removed": false
        }
      ],
      "logsBloom": "0x00040000000000000000200000000000000000000000000000000400002000000000000000000000000000000000000000000000004000000000000000000000000000000000000000000000000020000000000000000000000000000000000000000000000000000000000000000000000000000000000000000000000000000000000000000000000000000000000000000000000000010000000000000000000000000100000000000000000000000000000000000000000000000000000000000000000000000000000000000000000000000000100000000008000000040000000000000000000000000000000000000000000002000000000000000000",
      "type": "0x2",
      "transactionHash": "0x146da422ab038d6e7ff867e9a53fca88931ace7b90c2c90adde1e1dba09d2ff6",
      "transactionIndex": "0x1a3",
      "blockHash": "0xaed7a990d3689aa8b34d36a419254508b67620209ce883c445f86931db3476ba",
      "blockNumber": "0x65a254",
      "gasUsed": "0xd2a1",
      "effectiveGasPrice": "0x8fc0c4fc2",
      "from": "0x27e20bd50106e3fbc50a230bd5dc02d7793c7d84",
      "to": "0xc021a7deb4a939fd7e661a0669fab5ac7ba2d5d6",
      "contractAddress": null
    }
  ],
  "libraries": [],
  "pending": [],
  "returns": {},
  "timestamp": 1725880147,
  "chain": 11155111,
  "commit": "a69059a"
}