{
  "transactions": [
    {
      "hash": "0xe26bf761d6247a0d5c90f5aab298d5c03ff363e4a41baf1f1f4ebbcf355b0eef",
      "transactionType": "CALL",
      "contractName": null,
      "contractAddress": "0x0f1d1b7abaec1df25f2c4db751686fc5233f6d3f",
      "function": "approve(address,uint256)",
      "arguments": [
        "0x39BF2eFF94201cfAA471932655404F63315147a4",
        "100000000000000000000000"
      ],
      "transaction": {
        "from": "0x27e20bd50106e3fbc50a230bd5dc02d7793c7d84",
        "to": "0x0f1d1b7abaec1df25f2c4db751686fc5233f6d3f",
        "gas": "0xa755",
        "value": "0x0",
        "input": "0x095ea7b300000000000000000000000039bf2eff94201cfaa471932655404f63315147a400000000000000000000000000000000000000000000152d02c7e14af6800000",
        "nonce": "0x33",
        "chainId": "0xaa36a7"
      },
      "additionalContracts": [],
      "isFixedGasLimit": false
    },
    {
      "hash": "0x466c746ff44b1b183e0aa1bb628a7cd1418eb4f24b30f58916673fa9535cc88f",
      "transactionType": "CALL",
      "contractName": null,
      "contractAddress": "0xc7c06a77b481869ecc57e5432d03c3661406424d",
      "function": "approve(address,uint256)",
      "arguments": [
        "0x39BF2eFF94201cfAA471932655404F63315147a4",
        "100000000000000000000000"
      ],
      "transaction": {
        "from": "0x27e20bd50106e3fbc50a230bd5dc02d7793c7d84",
        "to": "0xc7c06a77b481869ecc57e5432d03c3661406424d",
        "gas": "0xa755",
        "value": "0x0",
        "input": "0x095ea7b300000000000000000000000039bf2eff94201cfaa471932655404f63315147a400000000000000000000000000000000000000000000152d02c7e14af6800000",
        "nonce": "0x34",
        "chainId": "0xaa36a7"
      },
      "additionalContracts": [],
      "isFixedGasLimit": false
    },
    {
      "hash": "0x930f9b6f432f3df23043686d6f30098b4e6af5b7f02a5d1f638ad50a74c6a7b9",
      "transactionType": "CALL",
      "contractName": null,
      "contractAddress": "0x39bf2eff94201cfaa471932655404f63315147a4",
      "function": "modifyLiquidity((address,address,uint24,int24,address),(int24,int24,int256,bytes32),bytes)",
      "arguments": [
        "(0x0f1D1b7abAeC1Df25f2C4Db751686FC5233f6D3f, 0xc7c06a77b481869ecc57E5432D03c3661406424D, 4000, 60, 0x4E4a9A0C097427A4A72B1386A031fd411adf8aC0)",
        "(-600, 600, 1000000000000000000000000, 0x0000000000000000000000000000000000000000000000000000000000000000)",
        "0x"
      ],
      "transaction": {
        "from": "0x27e20bd50106e3fbc50a230bd5dc02d7793c7d84",
        "to": "0x39bf2eff94201cfaa471932655404f63315147a4",
        "gas": "0x5c380",
        "value": "0x0",
        "input": "0x5a6bcfda0000000000000000000000000f1d1b7abaec1df25f2c4db751686fc5233f6d3f000000000000000000000000c7c06a77b481869ecc57e5432d03c3661406424d0000000000000000000000000000000000000000000000000000000000000fa0000000000000000000000000000000000000000000000000000000000000003c0000000000000000000000004e4a9a0c097427a4a72b1386a031fd411adf8ac0fffffffffffffffffffffffffffffffffffffffffffffffffffffffffffffda8000000000000000000000000000000000000000000000000000000000000025800000000000000000000000000000000000000000000d3c21bcecceda1000000000000000000000000000000000000000000000000000000000000000000000000000000000000000000000000000000000000000000000000000000000001400000000000000000000000000000000000000000000000000000000000000000",
        "nonce": "0x35",
        "chainId": "0xaa36a7"
      },
      "additionalContracts": [],
      "isFixedGasLimit": false
    }
  ],
  "receipts": [
    {
      "status": "0x1",
      "cumulativeGasUsed": "0xf06371",
      "logs": [
        {
          "address": "0x0f1d1b7abaec1df25f2c4db751686fc5233f6d3f",
          "topics": [
            "0x8c5be1e5ebec7d5bd14f71427d1e84f3dd0314c0f7b2291e5b200ac8c7c3b925",
            "0x00000000000000000000000027e20bd50106e3fbc50a230bd5dc02d7793c7d84",
            "0x00000000000000000000000039bf2eff94201cfaa471932655404f63315147a4"
          ],
          "data": "0x00000000000000000000000000000000000000000000152d02c7e14af6800000",
          "blockHash": "0x8331a519409666ee1b2b95a5fba6aa4f587c20d33d649a8dbd6fda9bf165e089",
          "blockNumber": "0x65a258",
          "transactionHash": "0xe26bf761d6247a0d5c90f5aab298d5c03ff363e4a41baf1f1f4ebbcf355b0eef",
          "transactionIndex": "0xfc",
          "logIndex": "0x108",
          "removed": false
        }
      ],
      "logsBloom": "0x00000000020000008000000000000001000000000000000000000000000100000000000000000000000000000000000000000000000000000000000000200000000000000000000000000000000000000000000000000000000000000000000000000000000000000000000000000000000000000000000000000000000000000000000000000040000000000000000000000000000000000000040100000000020000000000000000000000000000000000000000000000000000000000000000000000000000040000000000000000000000000000000000000000000000000010000000000000000000000000000000000000000001000000000000000000",
      "type": "0x2",
      "transactionHash": "0xe26bf761d6247a0d5c90f5aab298d5c03ff363e4a41baf1f1f4ebbcf355b0eef",
      "transactionIndex": "0xfc",
      "blockHash": "0x8331a519409666ee1b2b95a5fba6aa4f587c20d33d649a8dbd6fda9bf165e089",
      "blockNumber": "0x65a258",
      "gasUsed": "0x726b",
      "effectiveGasPrice": "0xa4696ac17",
      "from": "0x27e20bd50106e3fbc50a230bd5dc02d7793c7d84",
      "to": "0x0f1d1b7abaec1df25f2c4db751686fc5233f6d3f",
      "contractAddress": null
    },
    {
      "status": "0x1",
      "cumulativeGasUsed": "0xf0d5dc",
      "logs": [
        {
          "address": "0xc7c06a77b481869ecc57e5432d03c3661406424d",
          "topics": [
            "0x8c5be1e5ebec7d5bd14f71427d1e84f3dd0314c0f7b2291e5b200ac8c7c3b925",
            "0x00000000000000000000000027e20bd50106e3fbc50a230bd5dc02d7793c7d84",
            "0x00000000000000000000000039bf2eff94201cfaa471932655404f63315147a4"
          ],
          "data": "0x00000000000000000000000000000000000000000000152d02c7e14af6800000",
          "blockHash": "0x8331a519409666ee1b2b95a5fba6aa4f587c20d33d649a8dbd6fda9bf165e089",
          "blockNumber": "0x65a258",
          "transactionHash": "0x466c746ff44b1b183e0aa1bb628a7cd1418eb4f24b30f58916673fa9535cc88f",
          "transactionIndex": "0xfd",
          "logIndex": "0x109",
          "removed": false
        }
      ],
      "logsBloom": "0x00000000020000008000000000000000000000000000000000000000000000000000000000000000000000000000000000000000000000000000000000200000000000000000000000000000000000000000000000000000000000000000000000000000000000000000000000000000000000000000000000000000000000000000000000000040000000000000000000000000000000800000000100000000020000000000000000000000000000000000000000000000000000000000000000000010000000040000000000000000000000000000000000000000000000000010000000000800000000000000000000000000000001000000000000000000",
      "type": "0x2",
      "transactionHash": "0x466c746ff44b1b183e0aa1bb628a7cd1418eb4f24b30f58916673fa9535cc88f",
      "transactionIndex": "0xfd",
      "blockHash": "0x8331a519409666ee1b2b95a5fba6aa4f587c20d33d649a8dbd6fda9bf165e089",
      "blockNumber": "0x65a258",
      "gasUsed": "0x726b",
      "effectiveGasPrice": "0xa4696ac17",
      "from": "0x27e20bd50106e3fbc50a230bd5dc02d7793c7d84",
      "to": "0xc7c06a77b481869ecc57e5432d03c3661406424d",
      "contractAddress": null
    },
    {
      "status": "0x1",
      "cumulativeGasUsed": "0xf50219",
      "logs": [
        {
          "address": "0xc021a7deb4a939fd7e661a0669fab5ac7ba2d5d6",
          "topics": [
            "0x541c041c2cce48e614b3de043c9280f06b6164c0a1741649e2de3c3d375f7974",
            "0x8e73b58e6486c577408ef946ea76f79e60a835fd905b7c0c42b564024bcd4581",
            "0x00000000000000000000000039bf2eff94201cfaa471932655404f63315147a4"
          ],
          "data": "0xfffffffffffffffffffffffffffffffffffffffffffffffffffffffffffffda8000000000000000000000000000000000000000000000000000000000000025800000000000000000000000000000000000000000000d3c21bcecceda1000000",
          "blockHash": "0x8331a519409666ee1b2b95a5fba6aa4f587c20d33d649a8dbd6fda9bf165e089",
          "blockNumber": "0x65a258",
          "transactionHash": "0x930f9b6f432f3df23043686d6f30098b4e6af5b7f02a5d1f638ad50a74c6a7b9",
          "transactionIndex": "0xfe",
          "logIndex": "0x10a",
          "removed": false
        },
        {
          "address": "0x0f1d1b7abaec1df25f2c4db751686fc5233f6d3f",
          "topics": [
            "0xddf252ad1be2c89b69c2b068fc378daa952ba7f163c4a11628f55a4df523b3ef",
            "0x00000000000000000000000027e20bd50106e3fbc50a230bd5dc02d7793c7d84",
            "0x000000000000000000000000c021a7deb4a939fd7e661a0669fab5ac7ba2d5d6"
          ],
          "data": "0x000000000000000000000000000000000000000000000642126a0003519a29bc",
          "blockHash": "0x8331a519409666ee1b2b95a5fba6aa4f587c20d33d649a8dbd6fda9bf165e089",
          "blockNumber": "0x65a258",
          "transactionHash": "0x930f9b6f432f3df23043686d6f30098b4e6af5b7f02a5d1f638ad50a74c6a7b9",
          "transactionIndex": "0xfe",
          "logIndex": "0x10b",
          "removed": false
        },
        {
          "address": "0xc7c06a77b481869ecc57e5432d03c3661406424d",
          "topics": [
            "0xddf252ad1be2c89b69c2b068fc378daa952ba7f163c4a11628f55a4df523b3ef",
            "0x00000000000000000000000027e20bd50106e3fbc50a230bd5dc02d7793c7d84",
            "0x000000000000000000000000c021a7deb4a939fd7e661a0669fab5ac7ba2d5d6"
          ],
          "data": "0x000000000000000000000000000000000000000000000642126a0003519a29bc",
          "blockHash": "0x8331a519409666ee1b2b95a5fba6aa4f587c20d33d649a8dbd6fda9bf165e089",
          "blockNumber": "0x65a258",
          "transactionHash": "0x930f9b6f432f3df23043686d6f30098b4e6af5b7f02a5d1f638ad50a74c6a7b9",
          "transactionIndex": "0xfe",
          "logIndex": "0x10c",
          "removed": false
        }
      ],
      "logsBloom": "0x00000000120000008000200000000001000000000004000000000400000100000000000020000000000000000000000000000000004000000000000000000000000000000000400000000008000000000000000000000000000000000000000010000000000000000000000000000000000000000000000000000010000000000000000000000040000000000000000000000000000000800000040100000000000000000000000000080000000000000000000000000000000000000080000000000012000000040000000000000000000000000000000000000001000000000000000000000800040000000000000000000000000001000000000000000000",
      "type": "0x2",
      "transactionHash": "0x930f9b6f432f3df23043686d6f30098b4e6af5b7f02a5d1f638ad50a74c6a7b9",
      "transactionIndex": "0xfe",
      "blockHash": "0x8331a519409666ee1b2b95a5fba6aa4f587c20d33d649a8dbd6fda9bf165e089",
      "blockNumber": "0x65a258",
      "gasUsed": "0x42c3d",
      "effectiveGasPrice": "0xa4696ac17",
      "from": "0x27e20bd50106e3fbc50a230bd5dc02d7793c7d84",
      "to": "0x39bf2eff94201cfaa471932655404f63315147a4",
      "contractAddress": null
    }
  ],
  "libraries": [],
  "pending": [],
  "returns": {},
  "timestamp": 1725880207,
  "chain": 11155111,
  "commit": "a69059a"
}