{
  "transactions": [
    {
      "hash": "0x3aaeda565e51d2e8e01bdf36007c99654229eaf0255c284d20acce30a8b0a91a",
      "transactionType": "CALL",
      "contractName": null,
      "contractAddress": "0x0f1d1b7abaec1df25f2c4db751686fc5233f6d3f",
      "function": "approve(address,uint256)",
      "arguments": [
        "0x39BF2eFF94201cfAA471932655404F63315147a4",
        "1000000000000000000000"
      ],
      "transaction": {
        "from": "0x27e20bd50106e3fbc50a230bd5dc02d7793c7d84",
        "to": "0x0f1d1b7abaec1df25f2c4db751686fc5233f6d3f",
        "gas": "0x9df8",
        "value": "0x0",
        "input": "0x095ea7b300000000000000000000000039bf2eff94201cfaa471932655404f63315147a400000000000000000000000000000000000000000000003635c9adc5dea00000",
        "nonce": "0xc",
        "chainId": "0xaa36a7"
      },
      "additionalContracts": [],
      "isFixedGasLimit": false
    },
    {
      "hash": "0x90bb395aabf06db7fae88ff35547b6e0debf8909f324c2a0192fed107d6d2dc7",
      "transactionType": "CALL",
      "contractName": null,
      "contractAddress": "0xc7c06a77b481869ecc57e5432d03c3661406424d",
      "function": "approve(address,uint256)",
      "arguments": [
        "0x39BF2eFF94201cfAA471932655404F63315147a4",
        "1000000000000000000000"
      ],
      "transaction": {
        "from": "0x27e20bd50106e3fbc50a230bd5dc02d7793c7d84",
        "to": "0xc7c06a77b481869ecc57e5432d03c3661406424d",
        "gas": "0x9df8",
        "value": "0x0",
        "input": "0x095ea7b300000000000000000000000039bf2eff94201cfaa471932655404f63315147a400000000000000000000000000000000000000000000003635c9adc5dea00000",
        "nonce": "0xd",
        "chainId": "0xaa36a7"
      },
      "additionalContracts": [],
      "isFixedGasLimit": false
    },
    {
      "hash": "0x46fe1a5052948b70a648b829269948ad2557bc1209d64296c039b48e697db41a",
      "transactionType": "CALL",
      "contractName": "PoolModifyLiquidityTest",
      "contractAddress": "0x39bf2eff94201cfaa471932655404f63315147a4",
      "function": "modifyLiquidity((address,address,uint24,int24,address),(int24,int24,int256,bytes32),bytes)",
      "arguments": [
        "(0x0f1D1b7abAeC1Df25f2C4Db751686FC5233f6D3f, 0xc7c06a77b481869ecc57E5432D03c3661406424D, 4000, 60, 0x4C3bb7E3eb22a1AED4f16D87A3427034E394cAc0)",
        "(-600, 600, 10000000000000000000000, 0x0000000000000000000000000000000000000000000000000000000000000000)",
        "0x"
      ],
      "transaction": {
        "from": "0x27e20bd50106e3fbc50a230bd5dc02d7793c7d84",
        "to": "0x39bf2eff94201cfaa471932655404f63315147a4",
        "gas": "0x3de83",
        "value": "0x0",
        "input": "0x5a6bcfda0000000000000000000000000f1d1b7abaec1df25f2c4db751686fc5233f6d3f000000000000000000000000c7c06a77b481869ecc57e5432d03c3661406424d0000000000000000000000000000000000000000000000000000000000000fa0000000000000000000000000000000000000000000000000000000000000003c0000000000000000000000004c3bb7e3eb22a1aed4f16d87a3427034e394cac0fffffffffffffffffffffffffffffffffffffffffffffffffffffffffffffda8000000000000000000000000000000000000000000000000000000000000025800000000000000000000000000000000000000000000021e19e0c9bab2400000000000000000000000000000000000000000000000000000000000000000000000000000000000000000000000000000000000000000000000000000000001400000000000000000000000000000000000000000000000000000000000000000",
        "nonce": "0xe",
        "chainId": "0xaa36a7"
      },
      "additionalContracts": [],
      "isFixedGasLimit": false
    }
  ],
  "receipts": [
    {
      "status": "0x1",
      "cumulativeGasUsed": "0x92bac5",
      "logs": [
        {
          "address": "0x0f1d1b7abaec1df25f2c4db751686fc5233f6d3f",
          "topics": [
            "0x8c5be1e5ebec7d5bd14f71427d1e84f3dd0314c0f7b2291e5b200ac8c7c3b925",
            "0x00000000000000000000000027e20bd50106e3fbc50a230bd5dc02d7793c7d84",
            "0x00000000000000000000000039bf2eff94201cfaa471932655404f63315147a4"
          ],
          "data": "0x00000000000000000000000000000000000000000000003635c9adc5dea00000",
          "blockHash": "0x92a95ad8c4558575d30b4387aae4f8ce0ef02c2323e3d3d71193a262b21189af",
          "blockNumber": "0x64897f",
          "transactionHash": "0x3aaeda565e51d2e8e01bdf36007c99654229eaf0255c284d20acce30a8b0a91a",
          "transactionIndex": "0x44",
          "logIndex": "0x73",
          "removed": false
        }
      ],
      "logsBloom": "0x00000000020000008000000000000001000000000000000000000000000100000000000000000000000000000000000000000000000000000000000000200000000000000000000000000000000000000000000000000000000000000000000000000000000000000000000000000000000000000000000000000000000000000000000000000040000000000000000000000000000000000000040100000000020000000000000000000000000000000000000000000000000000000000000000000000000000040000000000000000000000000000000000000000000000000010000000000000000000000000000000000000000001000000000000000000",
      "type": "0x2",
      "transactionHash": "0x3aaeda565e51d2e8e01bdf36007c99654229eaf0255c284d20acce30a8b0a91a",
      "transactionIndex": "0x44",
      "blockHash": "0x92a95ad8c4558575d30b4387aae4f8ce0ef02c2323e3d3d71193a262b21189af",
      "blockNumber": "0x64897f",
      "gasUsed": "0x725f",
      "effectiveGasPrice": "0x337e17826",
      "from": "0x27e20bd50106e3fbc50a230bd5dc02d7793c7d84",
      "to": "0x0f1d1b7abaec1df25f2c4db751686fc5233f6d3f",
      "contractAddress": null
    },
    {
      "status": "0x1",
      "cumulativeGasUsed": "0x94805a",
      "logs": [
        {
          "address": "0xc7c06a77b481869ecc57e5432d03c3661406424d",
          "topics": [
            "0x8c5be1e5ebec7d5bd14f71427d1e84f3dd0314c0f7b2291e5b200ac8c7c3b925",
            "0x00000000000000000000000027e20bd50106e3fbc50a230bd5dc02d7793c7d84",
            "0x00000000000000000000000039bf2eff94201cfaa471932655404f63315147a4"
          ],
          "data": "0x00000000000000000000000000000000000000000000003635c9adc5dea00000",
          "blockHash": "0x92a95ad8c4558575d30b4387aae4f8ce0ef02c2323e3d3d71193a262b21189af",
          "blockNumber": "0x64897f",
          "transactionHash": "0x90bb395aabf06db7fae88ff35547b6e0debf8909f324c2a0192fed107d6d2dc7",
          "transactionIndex": "0x46",
          "logIndex": "0x75",
          "removed": false
        }
      ],
      "logsBloom": "0x00000000020000008000000000000000000000000000000000000000000000000000000000000000000000000000000000000000000000000000000000200000000000000000000000000000000000000000000000000000000000000000000000000000000000000000000000000000000000000000000000000000000000000000000000000040000000000000000000000000000000800000000100000000020000000000000000000000000000000000000000000000000000000000000000000010000000040000000000000000000000000000000000000000000000000010000000000800000000000000000000000000000001000000000000000000",
      "type": "0x2",
      "transactionHash": "0x90bb395aabf06db7fae88ff35547b6e0debf8909f324c2a0192fed107d6d2dc7",
      "transactionIndex": "0x46",
      "blockHash": "0x92a95ad8c4558575d30b4387aae4f8ce0ef02c2323e3d3d71193a262b21189af",
      "blockNumber": "0x64897f",
      "gasUsed": "0x725f",
      "effectiveGasPrice": "0x337e17826",
      "from": "0x27e20bd50106e3fbc50a230bd5dc02d7793c7d84",
      "to": "0xc7c06a77b481869ecc57e5432d03c3661406424d",
      "contractAddress": null
    },
    {
      "status": "0x1",
      "cumulativeGasUsed": "0x974d78",
      "logs": [
        {
          "address": "0xc021a7deb4a939fd7e661a0669fab5ac7ba2d5d6",
          "topics": [
            "0x541c041c2cce48e614b3de043c9280f06b6164c0a1741649e2de3c3d375f7974",
            "0xd15a52975dec167ac122488117c7837c39b90f19534d527989ed367e220f3021",
            "0x00000000000000000000000039bf2eff94201cfaa471932655404f63315147a4"
          ],
          "data": "0xfffffffffffffffffffffffffffffffffffffffffffffffffffffffffffffda8000000000000000000000000000000000000000000000000000000000000025800000000000000000000000000000000000000000000021e19e0c9bab2400000",
          "blockHash": "0x92a95ad8c4558575d30b4387aae4f8ce0ef02c2323e3d3d71193a262b21189af",
          "blockNumber": "0x64897f",
          "transactionHash": "0x46fe1a5052948b70a648b829269948ad2557bc1209d64296c039b48e697db41a",
          "transactionIndex": "0x47",
          "logIndex": "0x76",
          "removed": false
        },
        {
          "address": "0x0f1d1b7abaec1df25f2c4db751686fc5233f6d3f",
          "topics": [
            "0xddf252ad1be2c89b69c2b068fc378daa952ba7f163c4a11628f55a4df523b3ef",
            "0x00000000000000000000000027e20bd50106e3fbc50a230bd5dc02d7793c7d84",
            "0x000000000000000000000000c021a7deb4a939fd7e661a0669fab5ac7ba2d5d6"
          ],
          "data": "0x00000000000000000000000000000000000000000000001090388f3a9b012f3b",
          "blockHash": "0x92a95ad8c4558575d30b4387aae4f8ce0ef02c2323e3d3d71193a262b21189af",
          "blockNumber": "0x64897f",
          "transactionHash": "0x46fe1a5052948b70a648b829269948ad2557bc1209d64296c039b48e697db41a",
          "transactionIndex": "0x47",
          "logIndex": "0x77",
          "removed": false
        },
        {
          "address": "0xc7c06a77b481869ecc57e5432d03c3661406424d",
          "topics": [
            "0xddf252ad1be2c89b69c2b068fc378daa952ba7f163c4a11628f55a4df523b3ef",
            "0x00000000000000000000000027e20bd50106e3fbc50a230bd5dc02d7793c7d84",
            "0x000000000000000000000000c021a7deb4a939fd7e661a0669fab5ac7ba2d5d6"
          ],
          "data": "0x00000000000000000000000000000000000000000000000f7a86b92474598aa9",
          "blockHash": "0x92a95ad8c4558575d30b4387aae4f8ce0ef02c2323e3d3d71193a262b21189af",
          "blockNumber": "0x64897f",
          "transactionHash": "0x46fe1a5052948b70a648b829269948ad2557bc1209d64296c039b48e697db41a",
          "transactionIndex": "0x47",
          "logIndex": "0x78",
          "removed": false
        }
      ],
      "logsBloom": "0x00000000120000008000200000000001000000000000000000000400000100000000000020000000000000000000000000000000004000000000000000000000000000000000400000000008000000000000000000000000000000000000000010000000000000000000000000000000000400000000000000000010000001000000000000000040000000000000000000000000000000800000040100000000000000000000000000080000400000000000000000000000000000000000000000000012000000040000000000000000000000000000000000000000000000000000000000000800040000000000000000000000000001000000000000000000",
      "type": "0x2",
      "transactionHash": "0x46fe1a5052948b70a648b829269948ad2557bc1209d64296c039b48e697db41a",
      "transactionIndex": "0x47",
      "blockHash": "0x92a95ad8c4558575d30b4387aae4f8ce0ef02c2323e3d3d71193a262b21189af",
      "blockNumber": "0x64897f",
      "gasUsed": "0x2cd1e",
      "effectiveGasPrice": "0x337e17826",
      "from": "0x27e20bd50106e3fbc50a230bd5dc02d7793c7d84",
      "to": "0x39bf2eff94201cfaa471932655404f63315147a4",
      "contractAddress": null
    }
  ],
  "libraries": [],
  "pending": [],
  "returns": {},
  "timestamp": 1724866045,
  "chain": 11155111,
  "commit": "67f8746"
}